{
  "address": "0x52D5282D99a61De2Ac8a6A1dF0F303f5f2Bb5B41",
  "abi": [
    {
      "anonymous": false,
      "inputs": [
        {
          "indexed": true,
          "internalType": "uint256",
          "name": "itemId",
          "type": "uint256"
        },
        {
          "indexed": true,
          "internalType": "address",
          "name": "nftContract",
          "type": "address"
        },
        {
          "indexed": true,
          "internalType": "uint256",
          "name": "tokenId",
          "type": "uint256"
        },
        {
          "indexed": false,
          "internalType": "address",
          "name": "seller",
          "type": "address"
        },
        {
          "indexed": false,
          "internalType": "address",
          "name": "owner",
          "type": "address"
        },
        {
          "indexed": false,
          "internalType": "uint256",
          "name": "price",
          "type": "uint256"
        },
        {
          "indexed": false,
          "internalType": "bool",
          "name": "sold",
          "type": "bool"
        }
      ],
      "name": "MarketItemCreated",
      "type": "event"
    },
    {
      "inputs": [
        {
          "internalType": "address payable",
          "name": "_commissionAddress",
          "type": "address"
        }
      ],
      "name": "changeCommissionAddress",
      "outputs": [],
      "stateMutability": "nonpayable",
      "type": "function"
    },
    {
      "inputs": [
        {
          "internalType": "uint256",
          "name": "_commissionPercentage",
          "type": "uint256"
        }
      ],
      "name": "changeCommissionPercentage",
      "outputs": [],
      "stateMutability": "nonpayable",
      "type": "function"
    },
    {
      "inputs": [],
      "name": "commissionAddress",
      "outputs": [
        {
          "internalType": "address payable",
          "name": "",
          "type": "address"
        }
      ],
      "stateMutability": "view",
      "type": "function"
    },
    {
      "inputs": [],
      "name": "commissionPercentage",
      "outputs": [
        {
          "internalType": "uint256",
          "name": "",
          "type": "uint256"
        }
      ],
      "stateMutability": "view",
      "type": "function"
    },
    {
      "inputs": [
        {
          "internalType": "address",
          "name": "nftContract",
          "type": "address"
        },
        {
          "internalType": "uint256",
          "name": "tokenId",
          "type": "uint256"
        },
        {
          "internalType": "uint256",
          "name": "price",
          "type": "uint256"
        }
      ],
      "name": "createMarketItem",
      "outputs": [],
      "stateMutability": "payable",
      "type": "function"
    },
    {
      "inputs": [
        {
          "internalType": "address",
          "name": "nftContract",
          "type": "address"
        },
        {
          "internalType": "uint256",
          "name": "itemId",
          "type": "uint256"
        }
      ],
      "name": "createMarketSale",
      "outputs": [],
      "stateMutability": "payable",
      "type": "function"
    },
    {
      "inputs": [],
      "name": "fetchItemsCreated",
      "outputs": [
        {
          "components": [
            {
              "internalType": "uint256",
              "name": "itemId",
              "type": "uint256"
            },
            {
              "internalType": "address",
              "name": "nftContract",
              "type": "address"
            },
            {
              "internalType": "uint256",
              "name": "tokenId",
              "type": "uint256"
            },
            {
              "internalType": "address payable",
              "name": "seller",
              "type": "address"
            },
            {
              "internalType": "address payable",
              "name": "owner",
              "type": "address"
            },
            {
              "internalType": "uint256",
              "name": "price",
              "type": "uint256"
            },
            {
              "internalType": "bool",
              "name": "sold",
              "type": "bool"
            }
          ],
          "internalType": "struct NFTMarket.MarketItem[]",
          "name": "",
          "type": "tuple[]"
        }
      ],
      "stateMutability": "view",
      "type": "function"
    },
    {
      "inputs": [],
      "name": "fetchMarketItems",
      "outputs": [
        {
          "components": [
            {
              "internalType": "uint256",
              "name": "itemId",
              "type": "uint256"
            },
            {
              "internalType": "address",
              "name": "nftContract",
              "type": "address"
            },
            {
              "internalType": "uint256",
              "name": "tokenId",
              "type": "uint256"
            },
            {
              "internalType": "address payable",
              "name": "seller",
              "type": "address"
            },
            {
              "internalType": "address payable",
              "name": "owner",
              "type": "address"
            },
            {
              "internalType": "uint256",
              "name": "price",
              "type": "uint256"
            },
            {
              "internalType": "bool",
              "name": "sold",
              "type": "bool"
            }
          ],
          "internalType": "struct NFTMarket.MarketItem[]",
          "name": "",
          "type": "tuple[]"
        }
      ],
      "stateMutability": "view",
      "type": "function"
    },
    {
      "inputs": [],
      "name": "fetchMyNFTs",
      "outputs": [
        {
          "components": [
            {
              "internalType": "uint256",
              "name": "itemId",
              "type": "uint256"
            },
            {
              "internalType": "address",
              "name": "nftContract",
              "type": "address"
            },
            {
              "internalType": "uint256",
              "name": "tokenId",
              "type": "uint256"
            },
            {
              "internalType": "address payable",
              "name": "seller",
              "type": "address"
            },
            {
              "internalType": "address payable",
              "name": "owner",
              "type": "address"
            },
            {
              "internalType": "uint256",
              "name": "price",
              "type": "uint256"
            },
            {
              "internalType": "bool",
              "name": "sold",
              "type": "bool"
            }
          ],
          "internalType": "struct NFTMarket.MarketItem[]",
          "name": "",
          "type": "tuple[]"
        }
      ],
      "stateMutability": "view",
      "type": "function"
    },
    {
      "inputs": [],
      "name": "getListingPrice",
      "outputs": [
        {
          "internalType": "uint256",
          "name": "",
          "type": "uint256"
        }
      ],
      "stateMutability": "view",
      "type": "function"
    },
    {
      "inputs": [],
      "name": "initialize",
      "outputs": [],
      "stateMutability": "nonpayable",
      "type": "function"
    }
  ],
  "transactionHash": "0xe0d96017e5b99d3d7eb40c46fa6bcb925712b01607aa8c67a381786e429efe0d",
  "args": [],
  "solcInputHash": "adc310dec1bae64331748863062e9aad",
  "bytecode": "0x608060405234801561001057600080fd5b506111bc806100206000396000f3fe6080604052600436106100bc5760003560e01c80638129fc1c11610074578063c23b139e1161004e578063c23b139e146101c2578063d575fe64146101d5578063f064c32e146101eb576100bc565b80638129fc1c14610155578063931742d31461016a578063b5991fa1146101a2576100bc565b806318f33b72116100a557806318f33b721461010b578063202e37401461012d57806358eb2df514610142576100bc565b80630f08efe0146100c157806312e85585146100ec575b600080fd5b3480156100cd57600080fd5b506100d6610200565b6040516100e3919061103e565b60405180910390f35b3480156100f857600080fd5b506038545b6040519081526020016100e3565b34801561011757600080fd5b5061012b610126366004610fa4565b6103b4565b005b34801561013957600080fd5b506100d6610442565b61012b610150366004610ff2565b610625565b34801561016157600080fd5b5061012b6108fb565b34801561017657600080fd5b5060365461018a906001600160a01b031681565b6040516001600160a01b0390911681526020016100e3565b3480156101ae57600080fd5b5061012b6101bd366004611026565b610a05565b61012b6101d0366004610fc7565b610ab4565b3480156101e157600080fd5b506100fd60375481565b3480156101f757600080fd5b506100d6610dc1565b6060600061020d60335490565b9050600061021a60345490565b6033546102279190611129565b90506000808267ffffffffffffffff81111561025357634e487b7160e01b600052604160045260246000fd5b6040519080825280602002602001820160405280156102ba57816020015b6040805160e08101825260008082526020808301829052928201819052606082018190526080820181905260a0820181905260c082015282526000199092019101816102715790505b50905060015b8481116103ab576000818152603960205260409020600401546001600160a01b031661039957600081815260396020908152604091829020825160e0810184528154815260018201546001600160a01b039081169382019390935260028201549381019390935260038101548216606084015260048101549091166080830152600581015460a0830152600681015460ff16151560c0830152835183929085908790811061037e57634e487b7160e01b600052603260045260246000fd5b60209081029190910101526103946001866110d2565b945050505b806103a381611140565b9150506102c0565b50935050505090565b6035546001600160a01b031633146104135760405162461bcd60e51b815260206004820152601760248201527f43616c6c6572206973206e6f7420746865206f776e657200000000000000000060448201526064015b60405180910390fd5b6036805473ffffffffffffffffffffffffffffffffffffffff19166001600160a01b0392909216919091179055565b6060600061044f60335490565b905060008060015b8381116104a0576000818152603960205260409020600401546001600160a01b031633141561048e5761048b6001846110d2565b92505b8061049881611140565b915050610457565b5060008267ffffffffffffffff8111156104ca57634e487b7160e01b600052604160045260246000fd5b60405190808252806020026020018201604052801561053157816020015b6040805160e08101825260008082526020808301829052928201819052606082018190526080820181905260a0820181905260c082015282526000199092019101816104e85790505b50905060015b8481116103ab576000818152603960205260409020600401546001600160a01b031633141561061357600081815260396020908152604091829020825160e0810184528154815260018201546001600160a01b039081169382019390935260028201549381019390935260038101548216606084015260048101549091166080830152600581015460a0830152600681015460ff16151560c083015283518392908590879081106105f857634e487b7160e01b600052603260045260246000fd5b602090810291909101015261060e6001866110d2565b945050505b8061061d81611140565b915050610537565b600260015414156106785760405162461bcd60e51b815260206004820152601f60248201527f5265656e7472616e637947756172643a207265656e7472616e742063616c6c00604482015260640161040a565b6002600155806106ca5760405162461bcd60e51b815260206004820152601c60248201527f5072696365206d757374206265206174206c6561737420312077656900000000604482015260640161040a565b60385434146107405760405162461bcd60e51b8152602060048201526024808201527f5072696365206d75737420626520657175616c20746f206c697374696e67207060448201527f7269636500000000000000000000000000000000000000000000000000000000606482015260840161040a565b61074e603380546001019055565b600061075960335490565b6040805160e0810182528281526001600160a01b0387811660208084018281528486018a8152336060870181815260006080890181815260a08a018e815260c08b018381528d84526039909852918b902099518a55945160018a018054918a1673ffffffffffffffffffffffffffffffffffffffff19928316179055935160028a015590516003890180549189169185169190911790559251600480890180549290981691909316179095559051600586015590516006909401805494151560ff199095169490941790935592517f23b872dd0000000000000000000000000000000000000000000000000000000081529182015230602482015260448101869052919250906323b872dd90606401600060405180830381600087803b15801561088257600080fd5b505af1158015610896573d6000803e3d6000fd5b505060408051338152600060208201819052818301879052606082015290518693506001600160a01b038816925084917f045dfa01dcba2b36aba1d3dc4a874f4b0c5d2fbeb8d2c4b34a7d88c8d8f929d1919081900360800190a45050600180555050565b600054610100900460ff1680610914575060005460ff16155b6109865760405162461bcd60e51b815260206004820152602e60248201527f496e697469616c697a61626c653a20636f6e747261637420697320616c72656160448201527f647920696e697469616c697a6564000000000000000000000000000000000000606482015260840161040a565b600054610100900460ff161580156109b1576000805460ff1961ff0019909116610100171660011790555b603580543373ffffffffffffffffffffffffffffffffffffffff1991821681179092556036805490911690911790556658d15e1762800060385560016037558015610a02576000805461ff00191690555b50565b6035546001600160a01b03163314610a5f5760405162461bcd60e51b815260206004820152601760248201527f43616c6c6572206973206e6f7420746865206f776e6572000000000000000000604482015260640161040a565b60648110610aaf5760405162461bcd60e51b815260206004820152601d60248201527f496e76616c696420636f6d6d697373696f6e2070657263656e74616765000000604482015260640161040a565b603755565b60026001541415610b075760405162461bcd60e51b815260206004820152601f60248201527f5265656e7472616e637947756172643a207265656e7472616e742063616c6c00604482015260640161040a565b6002600181905560008281526039602052604081206005810154920154603754909190610b356064856110ea565b610b3f919061110a565b6000858152603960205260409020600301549091506001600160a01b0316331415610bac5760405162461bcd60e51b815260206004820152601d60248201527f596f752063616e206e6f742062757920796f7572206f776e206974656d000000604482015260640161040a565b610bb681846110d2565b3414610c2c576040805162461bcd60e51b81526020600482015260248101919091527f506c65617365207375626d6974207468652061736b696e67207072696365206960448201527f6e206f7264657220746f20636f6d706c65746520746865207075726368617365606482015260840161040a565b6000848152603960205260408082206003015490516001600160a01b039091169185156108fc02918691818181858888f19350505050158015610c73573d6000803e3d6000fd5b506036546040516001600160a01b039091169082156108fc029083906000818181858888f19350505050158015610cae573d6000803e3d6000fd5b506040517f23b872dd000000000000000000000000000000000000000000000000000000008152306004820152336024820152604481018390526001600160a01b038616906323b872dd90606401600060405180830381600087803b158015610d1657600080fd5b505af1158015610d2a573d6000803e3d6000fd5b505050600085815260396020526040902060048101805473ffffffffffffffffffffffffffffffffffffffff191633179055600601805460ff1916600117905550610d79603480546001019055565b6035546038546040516001600160a01b039092169181156108fc0291906000818181858888f19350505050158015610db5573d6000803e3d6000fd5b50506001805550505050565b60606000610dce60335490565b905060008060015b838111610e1f576000818152603960205260409020600301546001600160a01b0316331415610e0d57610e0a6001846110d2565b92505b80610e1781611140565b915050610dd6565b5060008267ffffffffffffffff811115610e4957634e487b7160e01b600052604160045260246000fd5b604051908082528060200260200182016040528015610eb057816020015b6040805160e08101825260008082526020808301829052928201819052606082018190526080820181905260a0820181905260c08201528252600019909201910181610e675790505b50905060015b8481116103ab576000818152603960205260409020600301546001600160a01b0316331415610f9257600081815260396020908152604091829020825160e0810184528154815260018201546001600160a01b039081169382019390935260028201549381019390935260038101548216606084015260048101549091166080830152600581015460a0830152600681015460ff16151560c08301528351839290859087908110610f7757634e487b7160e01b600052603260045260246000fd5b6020908102919091010152610f8d6001866110d2565b945050505b80610f9c81611140565b915050610eb6565b600060208284031215610fb5578081fd5b8135610fc081611171565b9392505050565b60008060408385031215610fd9578081fd5b8235610fe481611171565b946020939093013593505050565b600080600060608486031215611006578081fd5b833561101181611171565b95602085013595506040909401359392505050565b600060208284031215611037578081fd5b5035919050565b602080825282518282018190526000919060409081850190868401855b828110156110c557815180518552868101516001600160a01b039081168887015286820151878701526060808301518216908701526080808301519091169086015260a0808201519086015260c09081015115159085015260e0909301929085019060010161105b565b5091979650505050505050565b600082198211156110e5576110e561115b565b500190565b60008261110557634e487b7160e01b81526012600452602481fd5b500490565b60008160001904831182151516156111245761112461115b565b500290565b60008282101561113b5761113b61115b565b500390565b60006000198214156111545761115461115b565b5060010190565b634e487b7160e01b600052601160045260246000fd5b6001600160a01b0381168114610a0257600080fdfea2646970667358221220b44f9be462dee0e09c0224ed2295d8b9c0950c1a90a77a7d658eb998db6c35ff64736f6c63430008020033",
  "devdoc": {
    "kind": "dev",
    "methods": {},
    "version": 1
  },
  "userdoc": {
    "kind": "user",
    "methods": {},
    "version": 1
  },
  "storageLayout": {
    "storage": [
      {
        "astId": 1577,
        "contract": "src/solc_0.8/market/Market.sol:NFTMarket",
        "label": "_initialized",
        "offset": 0,
        "slot": "0",
        "type": "t_bool"
      },
      {
        "astId": 1580,
        "contract": "src/solc_0.8/market/Market.sol:NFTMarket",
        "label": "_initializing",
        "offset": 1,
        "slot": "0",
        "type": "t_bool"
      },
      {
        "astId": 1631,
        "contract": "src/solc_0.8/market/Market.sol:NFTMarket",
        "label": "_status",
        "offset": 0,
        "slot": "1",
        "type": "t_uint256"
      },
      {
        "astId": 1674,
        "contract": "src/solc_0.8/market/Market.sol:NFTMarket",
        "label": "__gap",
        "offset": 0,
        "slot": "2",
        "type": "t_array(t_uint256)49_storage"
      },
      {
        "astId": 11567,
        "contract": "src/solc_0.8/market/Market.sol:NFTMarket",
        "label": "_itemIds",
        "offset": 0,
        "slot": "51",
        "type": "t_struct(Counter)3169_storage"
      },
      {
        "astId": 11570,
        "contract": "src/solc_0.8/market/Market.sol:NFTMarket",
        "label": "_itemsSold",
        "offset": 0,
        "slot": "52",
        "type": "t_struct(Counter)3169_storage"
      },
      {
        "astId": 11572,
        "contract": "src/solc_0.8/market/Market.sol:NFTMarket",
        "label": "owner",
        "offset": 0,
        "slot": "53",
        "type": "t_address_payable"
      },
      {
        "astId": 11574,
        "contract": "src/solc_0.8/market/Market.sol:NFTMarket",
        "label": "commissionAddress",
        "offset": 0,
        "slot": "54",
        "type": "t_address_payable"
      },
      {
        "astId": 11576,
        "contract": "src/solc_0.8/market/Market.sol:NFTMarket",
        "label": "commissionPercentage",
        "offset": 0,
        "slot": "55",
        "type": "t_uint256"
      },
      {
        "astId": 11578,
        "contract": "src/solc_0.8/market/Market.sol:NFTMarket",
        "label": "listingPrice",
        "offset": 0,
        "slot": "56",
        "type": "t_uint256"
      },
      {
        "astId": 11640,
        "contract": "src/solc_0.8/market/Market.sol:NFTMarket",
        "label": "idToMarketItem",
        "offset": 0,
        "slot": "57",
        "type": "t_mapping(t_uint256,t_struct(MarketItem)11635_storage)"
      }
    ],
    "types": {
      "t_address": {
        "encoding": "inplace",
        "label": "address",
        "numberOfBytes": "20"
      },
      "t_address_payable": {
        "encoding": "inplace",
        "label": "address payable",
        "numberOfBytes": "20"
      },
      "t_array(t_uint256)49_storage": {
        "base": "t_uint256",
        "encoding": "inplace",
        "label": "uint256[49]",
        "numberOfBytes": "1568"
      },
      "t_bool": {
        "encoding": "inplace",
        "label": "bool",
        "numberOfBytes": "1"
      },
      "t_mapping(t_uint256,t_struct(MarketItem)11635_storage)": {
        "encoding": "mapping",
        "key": "t_uint256",
        "label": "mapping(uint256 => struct NFTMarket.MarketItem)",
        "numberOfBytes": "32",
        "value": "t_struct(MarketItem)11635_storage"
      },
      "t_struct(Counter)3169_storage": {
        "encoding": "inplace",
        "label": "struct CountersUpgradeable.Counter",
        "members": [
          {
            "astId": 3168,
            "contract": "src/solc_0.8/market/Market.sol:NFTMarket",
            "label": "_value",
            "offset": 0,
            "slot": "0",
            "type": "t_uint256"
          }
        ],
        "numberOfBytes": "32"
      },
      "t_struct(MarketItem)11635_storage": {
        "encoding": "inplace",
        "label": "struct NFTMarket.MarketItem",
        "members": [
          {
            "astId": 11622,
            "contract": "src/solc_0.8/market/Market.sol:NFTMarket",
            "label": "itemId",
            "offset": 0,
            "slot": "0",
            "type": "t_uint256"
          },
          {
            "astId": 11624,
            "contract": "src/solc_0.8/market/Market.sol:NFTMarket",
            "label": "nftContract",
            "offset": 0,
            "slot": "1",
            "type": "t_address"
          },
          {
            "astId": 11626,
            "contract": "src/solc_0.8/market/Market.sol:NFTMarket",
            "label": "tokenId",
            "offset": 0,
            "slot": "2",
            "type": "t_uint256"
          },
          {
            "astId": 11628,
            "contract": "src/solc_0.8/market/Market.sol:NFTMarket",
            "label": "seller",
            "offset": 0,
            "slot": "3",
            "type": "t_address_payable"
          },
          {
            "astId": 11630,
            "contract": "src/solc_0.8/market/Market.sol:NFTMarket",
            "label": "owner",
            "offset": 0,
            "slot": "4",
            "type": "t_address_payable"
          },
          {
            "astId": 11632,
            "contract": "src/solc_0.8/market/Market.sol:NFTMarket",
            "label": "price",
            "offset": 0,
            "slot": "5",
            "type": "t_uint256"
          },
          {
            "astId": 11634,
            "contract": "src/solc_0.8/market/Market.sol:NFTMarket",
            "label": "sold",
            "offset": 0,
            "slot": "6",
            "type": "t_bool"
          }
        ],
        "numberOfBytes": "224"
      },
      "t_uint256": {
        "encoding": "inplace",
        "label": "uint256",
        "numberOfBytes": "32"
      }
    }
  }
}